:100000000C9445000C9443000C9443000C94430062
:100010000C9443000C9443000C9443000C94430054
:100020000C9443000C9443000C9443000C94430044
:100030000C9443000C9443000C9443000C94430034
:100040000C9443000C9443000C9443000C94430024
:100050000C9443000C9443000C9443000C94430014
:100060000C9443000E9434001F9318E01093000486
:10007000109304040E945D00109204040E945D002D
:10008000F7CFF894FFCF0E944100E0EFF0E0A0E04E
:10009000BFE380E09FE302C025912D93A817B90725
:1000A000D9F7A0E0BFE380E09FE320E001C02D93FB
:1000B000A817B907E1F70E94320080E090E026E837
:1000C00041E050E034E0BC01DB01B070E1E0803A97
:1000D0009207A407B50708F4E12DE170E03039F488
:1000E000309305048F5F9F4F6F4F7F4FEDCF089583
:040000030000006495
:00000001FF
